:020000040800F2
:1000000000000110FD060008F5060008F5060008CE
:10001000F5060008F5060008F506000800000000D7
:10002000000000000000000000000000210C00089B
:10003000F506000800000000810E0008E90E000827
:10004000F5060008F5060008F5060008F5060008A4
:10005000F5060008F5060008F5060008F506000894
:10006000F5060008F5060008F5060008F506000884
:10007000F5060008F5060008F5060008F506000874
:10008000F5060008F5060008F5060008F506000864
:10009000F5060008F5060008F5060008F506000854
:1000A000F5060008F5060008F5060008F506000844
:1000B000F5060008F5060008F5060008F506000834
:1000C000F5060008F5060008F5060008F506000824
:1000D000F5060008F5060008F5060008F506000814
:1000E000F5060008F5060008F5060008F506000804
:1000F000F5060008F5060008F5060008F5060008F4
:10010000F5060008F5060008F5060008F5060008E3
:10011000F5060008F5060008F5060008F5060008D3
:10012000F5060008F5060008F5060008F5060008C3
:10013000F5060008F5060008F5060008F5060008B3
:10014000F5060008F5060008F5060008F5060008A3
:10015000F5060008F5060008F5060008F506000893
:10016000F5060008F5060008F5060008F506000883
:10017000F5060008F5060008F5060008F506000873
:10018000F5060008F506000810B5054C237833B9CC
:10019000044B13B10448AFF300800123237010BD5A
:1001A0004004002000000000C032000808B5034BE6
:1001B0001BB103490348AFF3008008BD00000000F5
:1001C00044040020C032000880B400AF4FF6FF7333
:1001D0001846BD465DF8047B7047000080B483B0CC
:1001E00000AF03463960FB80FB881B021AB2FB8814
:1001F0001B0A9BB219463B681B784B40064931F8F5
:1002000013301BB253401BB29BB218460C37BD468D
:100210005DF8047B704700BF9830000880B584B05B
:1002200000AF78603960FFF7CFFF0346FB8109E03C
:100230007B685A1C7A60FA8919461046FFF7CEFF90
:100240000346FB813B685A1E3A60002BF0D1FB89C4
:1002500018461037BD4680BD80B483B000AF7860CB
:100260000B46FB701346BB70FB78DB08D8B2024626
:100270007B68083253F82220FB7803F007039B00C9
:100280000F2101FA03F3DB4302EA03017B6800F16B
:10029000080243F82210FB78DB08D8B202467B68DC
:1002A000083253F82230BA7802F00F01FA7802F0DF
:1002B0000702920001FA02F21146024619437B68D6
:1002C000083243F8221000BF0C37BD465DF8047BAE
:1002D0007047000080B400AF0E4B1B680D4A43F01E
:1002E000807313600B4B1B680A4A43F080631360F2
:1002F000084B1B68074A43F080531360054B1B688B
:10030000044A43F08043136000BFBD465DF8047BA0
:10031000704700BF000C024080B500AF294B1B683E
:10032000284A23F030031360264B1B68254A43F00C
:1003300020031360234B5B68224A23F004035360BD
:10034000204B9B681F4A23F0300393601D4B9B6832
:100350001C4A43F0300393601A4BDB68194A23F0C0
:100360003003D360072202211648FFF775FF154BB3
:100370001B68144A23F0C0031360124B1B68114A18
:1003800043F0800313600F4B5B680E4A23F00803B1
:1003900053600C4B9B680B4A23F0C0039360094BDE
:1003A0009B68084A43F0C0039360064BDB68054A2C
:1003B00023F0C003D360072203210248FFF74CFF5C
:1003C00000BF80BD0000024080B485B000AFF8607F
:1003D000B9607A60FB68074A1A60BB68064A1A600F
:1003E0007B6880221A6000BF1437BD465DF8047B2D
:1003F000704700BF5C040020B004002080B485B0CA
:1004000000AFF860B9607A60FB68074A1A60BB68A1
:10041000064A1A607B6880221A6000BF1437BD4606
:100420005DF8047B704700BFB00600200407002081
:1004300080B485B000AF786039604FF0500383F32B
:100440001188BFF36F8FBFF34F8FFB60FEE7000093
:1004500080B485B000AF78600B467B807B88FB81E1
:1004600010E00E4B1B7819460C4B1B781A467B6824
:1004700013440B4A525C1A70084B1B780133DAB2F2
:10048000064B1A70FB89013BFB81FB89002BE8D1ED
:1004900000BF1437BD465DF8047B70470409002097
:1004A000400D002080B582B000AF2B4B1A882B4B3B
:1004B0001B889A4245D02A4B1B781A46264B1B882C
:1004C0001946264B1B88CB1A9A4240DB234B1B88CC
:1004D0001A46244BD018204B1A88204B1B88D31A5D
:1004E0009BB21946FFF7B4FF1B4B1A881B4B1A80AF
:1004F0001A4B1B88062B0AD11A4B5B799AB2164B02
:100500001B8813449BB202339AB2134B1A80134BCD
:100510001B881A46134B5B7908339A4217D10E4B4E
:100520001B88023B19460F48FFF778FE0346FB8005
:100530000C4B5B791A460B4B134406331B88BB806C
:1005400005E0064B00221A80034B06221A8000BFEA
:100550000837BD4680BD00BFDC0B00203C0D0020ED
:1005600006090020340C002080B500AF0C4B5B68FE
:10057000DBB25B42DAB20B4B1A700A4B1A780A4BA9
:100580001B78D31ADAB2094B1A70074B1A78054B4D
:100590001B789A4201D0FFF785FF00BF80BD00BFE6
:1005A0008860024005090020040900200609002097
:1005B00080B483B000AF074B7B607B68013B7B60FE
:1005C0007B68002BF9D100BF0C37BD465DF8047B7A
:1005D000704700BF0059000180B584B000AF78605B
:1005E0007B68012B09D04FF0500383F31188BFF3D0
:1005F0006F8FBFF34F8FFB60FEE7FFF7B5FFFCE7A0
:1006000080B500AF134B48F20C029A81114BC02207
:100610009A82114B1B689B084FF4165219460D48DD
:1006200000F0ADF90D4B4FF480725A600B4B0C4A41
:100630009A600A4B0B4ADA60084B0B4A1A60054B6A
:100640009B899BB2034A43F400539BB2938100BF42
:1006500080BD00BF004400400000002088600240D0
:1006600004440040400D00200105000880B584B01E
:1006700004AFFFF79DFF00F021F8FFF72BFEFFF717
:100680004BFEFFF7BDFF094B0293094B019300237B
:1006900000930123C8220749074801F00BFA01F033
:1006A00055FB00231846BD4680BD00BFE00B00206F
:1006B000400E002098320008D905000880B400AF31
:1006C0000B4B1B6B0A4A43F001031363084B1B6B74
:1006D000074A43F008031363054B1B6C044A43F4B9
:1006E0000033136400BFBD465DF8047B704700BF54
:1006F0000038024080B400AFFEE70000F8B500AF5C
:100700001A4E1B4C1B4D05E03246161D23461C1D80
:1007100012681A60AC42F7D3174C184D03E0234619
:100720001C1D00221A60AC42F9D3154C154D03E094
:1007300023461C1D00221A60AC42F9D3124E134D01
:1007400003E033461E1D1B689847AE42F9D300F004
:1007500023F8FFF78BFF0E4E0E4D03E033461E1DB0
:100760001B689847AE42F9D300BFF8BDC4320008F9
:10077000000000204004002040040020A4110020BC
:100780000000001000000010340400203C04002091
:100790003C0400204004002080B500AF164BD3F885
:1007A0008830154A43F47003C2F88830134B1B6835
:1007B000124A43F001031360104B00229A600F4B62
:1007C0001B680E4A23F0847323F4803313600B4BB1
:1007D0000B4A5A60094B1B68084A23F480231360B4
:1007E000064B0022DA6000F00DF8034B4FF0006278
:1007F0009A6000BF80BD00BF00ED00E000380240FD
:100800001030002480B483B000AF00237B6000234D
:100810003B60364B1B68354A43F480331360334BDF
:100820001B6803F400333B607B6801337B603B68EB
:10083000002B03D17B68B3F5A04FF0D12B4B1B6885
:1008400003F40033002B02D001233B6001E00023BE
:100850003B603B68012B42D1244B1B6C234A43F085
:1008600080531364224B1B68214A43F440431360B6
:100870001E4B1E4A9B6893601C4B9B681B4A43F4AB
:1008800000439360194B9B68184A43F4A05393604C
:10089000164B184A5A60154B1B68144A43F0807374
:1008A000136000BF114B1B6803F00073002BF9D0DD
:1008B000114B40F205721A600C4B9B680B4A23F0F7
:1008C00003039360094B9B68084A43F0020393605B
:1008D00000BF064B9B6803F00C03082BF9D100BF47
:1008E0000C37BD465DF8047B704700BF00380240FE
:1008F0000070004008544007003C024080B483B0C0
:1009000000AF78600B467B807B689B899AB27B88BE
:1009100013409BB2002B01D0012300E000231846B6
:100920000C37BD465DF8047B704780B582B000AFE0
:1009300078604FF400417868FFF7E0FF03461846FF
:100940000837BD4680BD80B483B000AF78600B46E9
:100950007B8013463B807B881B019BB21AB2B7F9A0
:10096000003003F00F031BB213431BB29AB27B6833
:100970001A8100BF0C37BD465DF8047B704780B517
:1009800088B000AFF860B9607A60F868FFF7CDFF13
:100990000346FB61FA6913465B079B1ADB001033C1
:1009A0007A6802FB03F3BA68B2FBF3F3BB61BA687F
:1009B0007B68B2FBF3F3FB82BB699BB21B019BB26A
:1009C000FA8AD31ABB82FB69002B0AD0BB6999B2A1
:1009D000BB8A03F007039BB21A46F868FFF7B3FF20
:1009E00006E0BB699BB2BA8A1946F868FFF7ABFF0D
:1009F00000BF2037BD4680BD80B483B000AF7860B3
:100A00007B6803F108027B685A607B684FF0FF3215
:100A10009A607B6803F108027B68DA607B6803F107
:100A200008027B681A617B6800221A6000BF0C37DD
:100A3000BD465DF8047B704780B483B000AF78603A
:100A40007B6800221A6100BF0C37BD465DF8047B4D
:100A5000704780B485B000AF786039607B685B68B0
:100A6000FB603B68FA685A60FB689A683B689A606A
:100A7000FB689B683A685A60FB683A689A603B6812
:100A80007A681A617B681B685A1C7B681A6000BF11
:100A90001437BD465DF8047B704780B485B000AF65
:100AA000786039603B681B68BB60BB68B3F1FF3F8F
:100AB00003D17B681B69FB600CE07B680833FB603B
:100AC00002E0FB685B68FB60FB685B681B68BA68F8
:100AD0009A42F6D2FB685A683B685A603B685B688A
:100AE0003A689A603B68FA689A60FB683A685A60AC
:100AF0003B687A681A617B681B685A1C7B681A60BD
:100B000000BF1437BD465DF8047B704780B485B0E4
:100B100000AF78607B681B69FB607B685B687A6804
:100B200092689A607B689B687A6852685A60FB6832
:100B30005B687A689A4203D17B689A68FB685A605E
:100B40007B6800221A61FB681B685A1EFB681A60EA
:100B5000FB681B6818461437BD465DF8047B704778
:100B600080B485B000AFF860B9607A60FB68043B80
:100B7000FB60FB684FF080721A60FB68043BFB600F
:100B8000BB6823F00102FB681A60FB68043BFB6052
:100B90000C4AFB681A60FB68143BFB607A68FB68D0
:100BA0001A60FB68043BFB60FB686FF002021A608E
:100BB000FB68203BFB60FB6818461437BD465DF8B8
:100BC000047B7047C90B000880B485B000AF0023D8
:100BD0007B60114B1B68B3F1FF3F09D04FF050030E
:100BE00083F31188BFF36F8FBFF34F8FFB60FEE776
:100BF0004FF0500383F31188BFF36F8FBFF34F8F14
:100C0000BB6000BF7B68002BFCD000BF1437BD4623
:100C10005DF8047B704700BF040000200000000066
:100C2000074B19680868B0E8F04F80F30988BFF3F4
:100C30006F8F4FF0000080F311887047AFF3008092
:100C40000C09002000BF00BF08480068006880F35E
:100C500008884FF0000080F3148862B661B6BFF3D5
:100C60004F8FBFF36F8F00DF00BF00BF08ED00E0C4
:100C700080B588B000AF4C4B1B684C4A934209D1F9
:100C80004FF0500383F31188BFF36F8FBFF34F8F83
:100C9000BB61FEE7444B1B68454A934209D14FF0C4
:100CA000500383F31188BFF36F8FBFF34F8F7B61C6
:100CB000FEE7404BFB61FB691B78DBB2BB60FB6965
:100CC000FF221A70FB691B78DBB2FB71FB79DBB288
:100CD00003F05003DAB2384B1A70384B07221A600F
:100CE00009E0364B1B68013B344A1360FB79DBB2E9
:100CF0005B00DBB2FB71FB79DBB203F08003802B7E
:100D0000EFD02E4B1B68C3F10703042B09D04FF023
:100D1000500383F31188BFF36F8FBFF34F8F3B6195
:100D2000FEE7264B1B68C3F10703042B09D04FF0E5
:100D3000500383F31188BFF36F8FBFF34F8FFB60B6
:100D4000FEE71E4B1B681B021C4A13601B4B1B68F3
:100D500003F4E063194A1360BB68DAB2FB691A70E6
:100D6000174B1B68164A43F470031360144B1B683F
:100D7000134A43F07043136000F0D6F8114B002281
:100D80001A6000F0F5F8104B1B680F4A43F040431F
:100D90001360FFF759FF01F0B3F9FFF715FF0023C8
:100DA00018462037BD4680BD00ED00E071C20F41FE
:100DB00070C20F4100E400E007090020080900208C
:100DC00020ED00E00400002034EF00E080B483B0A8
:100DD00000AF4FF0500383F31188BFF36F8FBFF361
:100DE0004F8F7B600E4B1B6801330D4A13600C4B19
:100DF0001B68012B0ED10B4B1B68DBB2002B09D0FB
:100E00004FF0500383F31188BFF36F8FBFF34F8F01
:100E10003B60FEE700BF0C37BD465DF8047B7047C2
:100E20000400002004ED00E080B483B000AF114B5B
:100E30001B68002B09D14FF0500383F31188BFF3D7
:100E40006F8FBFF34F8F7B60FEE70A4B1B68013B40
:100E5000084A1360074B1B68002B04D100233B603A
:100E60003B6883F3118800BF0C37BD465DF8047BF7
:100E7000704700BF040000200000000000000000D8
:100E8000EFF30980BFF36F8F154B1A681EF0100F38
:100E900008BF20ED108A20E9F04F10602DE909000D
:100EA0004FF0500080F31188BFF34F8FBFF36F8F67
:100EB00001F026F94FF0000080F3118809BC196891
:100EC0000868B0E8F04F1EF0100F08BFB0EC108AB1
:100ED00080F30988BFF36F8F704700BFAFF30080C6
:100EE0000C09002000BF00BF80B582B000AF4FF0FA
:100EF000500383F31188BFF36F8FBFF34F8F7B6075
:100F000001F042F80346002B03D0064B4FF080520D
:100F10001A6000233B603B6883F3118800BF0837E9
:100F2000BD4680BD04ED00E080B400AF0B4B002255
:100F30001A600B4B00221A600A4B1B680A4AA2FB7C
:100F400003239B09094A013B1360044B07221A60E3
:100F500000BFBD465DF8047B704700BF10E000E0B5
:100F600018E000E000000020D34D621014E000E023
:100F7000DFF80C00016841F470010160704700BFA8
:100F800088ED00E080B485B000AFEFF30583FB602F
:100F9000FB680F2B13D9164AFB6813441B78FB72AE
:100FA000144B1B78FA7A9A4209D24FF0500383F31C
:100FB0001188BFF36F8FBFF34F8F7B60FEE70E4B3F
:100FC0001B6803F4E0620D4B1B689A4209D94FF08D
:100FD000500383F31188BFF36F8FBFF34F8F3B60D4
:100FE000FEE700BF1437BD465DF8047B704700BFC5
:100FF000F0E300E0070900200CED00E00809002004
:1010000080B584B000AF786039607B68FB60FB68B6
:10101000002B09D14FF0500383F31188BFF36F8F7A
:10102000BFF34F8FBB60FEE7FFF7D0FEFB681A6887
:10103000FB68DB6BF968096C01FB03F31A44FB687E
:101040005A60FB6800229A63FB681A68FB689A6022
:10105000FB681A68FB68DB6B013BF968096C01FBF4
:1010600003F31A44FB68DA60FB68FF2283F844202C
:10107000FB68FF2283F845203B68002B14D1FB68F6
:101080001B69002B1AD0FB681033184601F006F9D3
:101090000346002B12D00D4B4FF080521A60BFF365
:1010A0004F8FBFF36F8F09E0FB6810331846FFF7CF
:1010B000A3FCFB6824331846FFF79EFCFFF7B4FE41
:1010C000012318461037BD4680BD00BF04ED00E087
:1010D00080B58EB002AFF860B9607A603B60FB68A3
:1010E000002B09D14FF0500383F31188BFF36F8FAA
:1010F000BFF34F8FBB62FEE73B68002B09D14FF077
:10110000500383F31188BFF36F8FBFF34F8F7B6260
:10111000FEE77B68002B02D0BB68002B01D00123C7
:1011200000E00023002B09D14FF0500383F3118816
:10113000BFF36F8FBFF34F8F3B62FEE77B68002BDF
:1011400002D1BB68002B01D1012300E00023002B5A
:1011500009D14FF0500383F31188BFF36F8FBFF3B2
:101160004F8FFB61FEE74C237B617B694C2B09D0E1
:101170004FF0500383F31188BFF36F8FBFF34F8F8E
:10118000BB61FEE73B68FB62FB6A002B09D097F866
:101190003820FB6A009313467A68B968F86800F053
:1011A00005F8FB6A18463037BD4680BD80B584B06F
:1011B00000AFF860B9607A60FB70BB68002B03D1A8
:1011C000BB69BA691A6002E0BB697A681A60BB69D8
:1011D000FA68DA63BB69BA681A640121B869FFF773
:1011E0000FFFBB6900229A6400BF1037BD4680BD67
:1011F00080B58EB000AFF860B9607A603B600023C4
:101200007B63FB683B633B6B002B09D14FF05003C2
:1012100083F31188BFF36F8FBFF34F8FBB62FEE77D
:10122000BB68002B03D13B6B1B6C002B01D101234E
:1012300000E00023002B09D14FF0500383F3118805
:10124000BFF36F8FBFF34F8F7B62FEE73B68022BCC
:1012500003D13B6BDB6B012B01D1012300E00023A9
:10126000002B09D14FF0500383F31188BFF36F8F28
:10127000BFF34F8F3B62FEE701F084F90346002B7A
:1012800002D17B68002B01D1012300E00023002B59
:1012900009D14FF0500383F31188BFF36F8FBFF371
:1012A0004F8FFB61FEE7FFF791FD3B6B9A6B3B6B4A
:1012B000DB6B9A4202D33B68022B3DD13A68B96896
:1012C000386B00F025FAF8623B6B9B6C002B0FD05B
:1012D0003968386B00F096FB0346002B28D04A4B48
:1012E0004FF080521A60BFF34F8FBFF36F8F1FE034
:1012F0003B6B5B6A002B10D03B6B2433184600F02D
:10130000CDFF0346002B13D03F4B4FF080521A60A5
:10131000BFF34F8FBFF36F8F0AE0FB6A002B07D03C
:10132000394B4FF080521A60BFF34F8FBFF36F8F6E
:10133000FFF77AFD012363E07B68002B03D1FFF701
:1013400073FD00235CE07B6B002B06D107F11403D7
:10135000184601F005F801237B63FFF765FD00F0F7
:1013600059FDFFF733FD3B6B93F844305BB2B3F1AB
:10137000FF3F03D13B6B002283F844203B6B93F883
:1013800045305BB2B3F1FF3F03D13B6B002283F8E2
:101390004520FFF749FD3A1D07F114031146184691
:1013A00000F0F4FF0346002B24D1386B00F0B6FAAE
:1013B0000346002B18D03B6B10337A681146184651
:1013C00000F01EFF386B00F033FA00F031FD0346E9
:1013D000002B7FF468AF0C4B4FF080521A60BFF3C4
:1013E0004F8FBFF36F8F5EE7386B00F021FA00F08C
:1013F0001FFD58E7386B00F01BFA00F019FD0023C1
:1014000018463837BD4680BD04ED00E080B58EB08B
:1014100000AFF860B9607A603B60FB683B633B6B90
:10142000002B09D14FF0500383F31188BFF36F8F66
:10143000BFF34F8F7B62FEE7BB68002B03D13B6B92
:101440001B6C002B01D1012300E00023002B09D1EC
:101450004FF0500383F31188BFF36F8FBFF34F8FAB
:101460003B62FEE73B68022B03D13B6BDB6B012B3E
:1014700001D1012300E00023002B09D14FF05003DC
:1014800083F31188BFF36F8FBFF34F8FFB61FEE7CC
:10149000FFF778FDEFF311824FF0500383F31188CB
:1014A000BFF36F8FBFF34F8FBA617B61BB69FB6284
:1014B0003B6B9A6B3B6BDB6B9A4202D33B68022B14
:1014C0003ED13B6B93F8453087F82B303A68B968CA
:1014D000386B00F01DF997F92B30B3F1FF3F24D1A1
:1014E0003B6B9B6C002B0DD03968386B00F08AFA8F
:1014F0000346002B21D07B68002B1ED07B68012285
:101500001A601AE03B6B5B6A002B16D03B6B2433EE
:10151000184600F0C3FE0346002B0ED07B68002B5C
:101520000BD07B6801221A6007E097F82B3001335B
:10153000DBB25AB23B6B83F8452001237B6301E0A9
:1015400000237B63FB6A3B613B6983F311887B6B00
:1015500018463837BD4680BD80B58CB000AFF86006
:10156000B9607A600023FB62FB68BB62BB6A002B38
:1015700009D14FF0500383F31188BFF36F8FBFF38E
:101580004F8F3B62FEE7BB68002B03D1BB6A1B6C2D
:10159000002B01D1012300E00023002B09D14FF0E3
:1015A000500383F31188BFF36F8FBFF34F8FFB613D
:1015B000FEE700F0E7FF0346002B02D17B68002B1B
:1015C00001D1012300E00023002B09D14FF050038B
:1015D00083F31188BFF36F8FBFF34F8FBB61FEE7BB
:1015E000FFF7F4FBBB6A9B6B7B627B6A002B1FD00F
:1015F000B968B86A00F0F6F87B6A5A1EBB6A9A634B
:10160000BB6A1B69002B0FD0BB6A1033184600F071
:1016100045FE0346002B07D03C4B4FF080521A602A
:10162000BFF34F8FBFF36F8FFFF7FEFB012369E01E
:101630007B68002B03D1FFF7F7FB002362E0FB6A16
:10164000002B06D107F11003184600F089FE012394
:10165000FB62FFF7E9FB00F0DDFBFFF7B7FBBB6ABE
:1016600093F844305BB2B3F1FF3F03D1BB6A002271
:1016700083F84420BB6A93F845305BB2B3F1FF3F77
:1016800003D1BB6A002283F84520FFF7CDFB3A1D4A
:1016900007F110031146184600F078FE0346002BB0
:1016A00023D1B86A00F024F90346002B17D0BB6A97
:1016B00024337A681146184600F0A2FDB86A00F09B
:1016C000B7F800F0B5FB0346002B89D10F4B4FF064
:1016D00080521A60BFF34F8FBFF36F8F80E7B86AF5
:1016E00000F0A6F800F0A4FB7AE7B86A00F0A0F8D2
:1016F00000F09EFBB86A00F0FBF80346002B3FF4B5
:101700006FAF002318463037BD4680BD04ED00E0C2
:1017100080B586B000AFF860B9607A6000237B6165
:10172000FB689B6B3B61FB681B6C002B0DD1FB685E
:101730001B68002B4DD1FB685B68184600F040FF2A
:101740007861FB6800225A6043E07B68002B19D166
:10175000FB689868FB681B6C1A46B96801F01EFBB1
:10176000FB689A68FB681B6C1A44FB689A60FB680C
:101770009A68FB685B689A422BD3FB681A68FB681F
:101780009A6026E0FB68D868FB681B6C1A46B9684B
:1017900001F004FBFB68DA68FB681B6C5B421A44CF
:1017A000FB68DA60FB68DA68FB681B689A4207D25C
:1017B000FB685A68FB681B6C5B421A44FB68DA6082
:1017C0007B68022B05D13B69002B02D03B69013BB2
:1017D0003B613B695A1CFB689A637B691846183762
:1017E000BD4680BD80B582B000AF786039607B684F
:1017F0001B6C002B18D07B68DA687B681B6C1A4462
:101800007B68DA607B68DA687B685B689A4203D33E
:101810007B681A687B68DA607B68D9687B681B6CB8
:101820001A46386801F0BAFA00BF0837BD4680BDD5
:1018300080B584B000AF7860FFF7C8FA7B6893F892
:101840004530FB731FE07B689B6C002B09D00021A7
:10185000786800F0D7F80346002B10D000F006FEA1
:101860000DE07B685B6A002B12D07B68243318463E
:1018700000F014FD0346002B01D000F0F7FDFB7BC8
:10188000013BDBB2FB7397F90F30002BDBDC00E090
:1018900000BF7B68FF2283F84520FFF7C5FAFFF7FA
:1018A00095FA7B6893F84430BB7311E07B681B6941
:1018B000002B12D07B681033184600F0EFFC034673
:1018C000002B01D000F0D2FDBB7B013BDBB2BB7330
:1018D00097F90E30002BE9DC00E000BF7B68FF22A7
:1018E00083F84420FFF7A0FA00BF1037BD4680BD43
:1018F00080B584B000AF7860FFF768FA7B689B6BB7
:10190000002B02D10123FB6001E00023FB60FFF705
:101910008BFAFB6818461037BD4680BD80B584B091
:1019200000AF7860FFF752FA7B689A6B7B68DB6BDD
:101930009A4202D10123FB6001E00023FB60FFF724
:1019400073FAFB6818461037BD4680BD80B485B079
:1019500000AF786039600023FB6014E00E4AFB683A
:1019600052F83330002B0BD10B49FB683A6841F831
:101970003320094AFB68DB0013447A685A6005E0AB
:10198000FB680133FB60FB68032BE7D900BF14370A
:10199000BD465DF8047B70476011002080B586B0BD
:1019A00000AFF860B9607A60FB687B61FFF70EFA00
:1019B0007B6993F844305BB2B3F1FF3F03D17B699D
:1019C000002283F844207B6993F845305BB2B3F181
:1019D000FF3F03D17B69002283F84520FFF724FAFB
:1019E0007B699B6B002B06D17B6924337A68B968CD
:1019F000184600F029FC7869FFF71AFF00BF183776
:101A0000BD4680BD80B588B000AF786039607B6826
:101A10009B6CBB610023FB61BB69002B09D14FF0BC
:101A2000500383F31188BFF36F8FBFF34F8F3B6178
:101A3000FEE7BB699A6BBB69DB6B9A4209D34FF037
:101A4000500383F31188BFF36F8FBFF34F8FFB6099
:101A5000FEE7BB699A6BBB69DB6B9A4225D2BB6917
:101A600093F84530FB753B1D3A681946B869FFF796
:101A70004FFEF86197F91730B3F1FF3F0ED1BB6904
:101A80005B6A002B11D0BB692433184600F006FCBA
:101A90000346002B09D00123FB6106E0FB7D0133E7
:101AA000DBB25AB2BB6983F84520FB691846203780
:101AB000BD4680BD80B58EB004AFF860B9607A6075
:101AC0003B607B6B002B09D14FF0500383F31188EF
:101AD000BFF36F8FBFF34F8F3B62FEE7BB6B002BF3
:101AE00009D14FF0500383F31188BFF36F8FBFF319
:101AF0004F8FFB61FEE754233B613B69542B09D0B8
:101B00004FF0500383F31188BFF36F8FBFF34F8FF4
:101B1000BB61FEE7BB6B002B1AD07B6B002B17D091
:101B2000BB6B7B627B6A7A6B1A63002303937B6ACD
:101B3000029307F1140301933B6B00933B687A68AF
:101B4000B968F86800F00BF8786A00F095F801E0E1
:101B500000237B617B6918462837BD4680BD80B570
:101B600088B000AFF860B9607A603B603B6B186B7F
:101B70007B689B001A46A52101F0AAF93B6B1A6B02
:101B80007B6803F18043013B9B001344BB61BB694D
:101B900023F00703BB61BB6903F00703002B09D0E7
:101BA0004FF0500383F31188BFF36F8FBFF34F8F54
:101BB0007B61FEE70023FB6114E0BA68FB69134414
:101BC00093F900103A6BFB69134434330A461A70D8
:101BD000BA68FB69134493F90030002B06D0FB6907
:101BE0000133FB61FB690F2BE7D900E000BF3B6BC2
:101BF000002283F84320BB6A0F2B01D90F23BB625D
:101C00003B6BBA6ADA623B6BBA6A5A643B6B00227E
:101C10009A643B6B04331846FEF70EFF3B6B183398
:101C20001846FEF709FF3B6B3A6B1A61BB6AC3F1BA
:101C300010023B6B9A613B6B3A6B5A623B6B002222
:101C4000DA643B6B002283F850203B6B002283F860
:101C500051203A68F968B869FEF782FF02463B6B8B
:101C60001A60FB6A002B02D0FB6A3A6B1A6000BF55
:101C70002037BD4680BD000080B582B000AF7860DF
:101C8000FFF7A4F82A4B1B680133294A1360294B3C
:101C90001B68002B09D1274A7B681360244B1B6803
:101CA000012B10D100F006FC0DE0234B1B68002B2C
:101CB00009D1204B1B68DA6A7B68DB6A9A4202D83A
:101CC0001C4A7B6813601D4B1B6801331B4A136061
:101CD0007B68DB6A01229A40194B1B681343184A40
:101CE00013607B68DA6A13469B0013449B00154A15
:101CF0001A447B68043319461046FEF7AAFEFFF724
:101D000093F80D4B1B68002B0ED00A4B1B68DA6A48
:101D10007B68DB6A9A4207D20B4B4FF080521A6005
:101D2000BFF34F8FBFF36F8F00BF0837BD4680BD35
:101D3000A80A00200C090020B40A0020C40A0020D0
:101D4000B00A00201009002004ED00E080B58AB040
:101D500004AF0023BB6000237B603A46391D07F1C6
:101D600008031846FEF730FB39687B68BA680292B0
:101D700001930023009300230A4620492048FFF7DF
:101D800099FE02461F4B1A601E4B1B68002B02D0A7
:101D900001237B6101E000237B617B69012B02D180
:101DA00000F0FCFC78617B69012B15D14FF05003EA
:101DB00083F31188BFF36F8FBFF34F8F3B61124BDB
:101DC0004FF0FF321A60114B01221A60104B0022B3
:101DD0001A60FEF74DFF0DE07B69B3F1FF3F09D1BB
:101DE0004FF0500383F31188BFF36F8FBFF34F8F12
:101DF000FB60FEE700BF1837BD4680BDA432000877
:101E000085240008CC0A0020C80A0020B40A00205B
:101E1000AC0A002080B400AF044B1B680133034AB6
:101E2000136000BFBD465DF8047B7047D00A0020F8
:101E300080B584B000AF0023FB600023BB60414B42
:101E40001B68002B09D14FF0500383F31188BFF3B7
:101E50006F8FBFF34F8F3B60FEE7FEF7B7FF394B45
:101E60001B68013B374A1360364B1B68002B61D15E
:101E7000354B1B68002B5DD02EE0344BDB68DB68F4
:101E8000FB60FB6818331846FEF740FEFB6804331E
:101E90001846FEF73BFEFB68DB6A01229A402C4B9A
:101EA0001B6813432A4A1360FB68DA6A13469B00D7
:101EB00013449B00274A1A44FB6804331946104612
:101EC000FEF7C7FDFB68DA6A234B1B68DB6A9A42A0
:101ED00002D3224B01221A601C4B1B68002BCCD171
:101EE000FB68002B01D000F027FB1D4B1B687B60BB
:101EF0007B68002B10D000F047F80346002B02D07F
:101F0000164B01221A607B68013B7B607B68002BCB
:101F1000F1D1134B00221A60104B1B68002B09D023
:101F20000123BB600F4B4FF080521A60BFF34F8FFD
:101F3000BFF36F8FFEF778FFBB6818461037BD46BA
:101F400080BD00BFD00A0020A80A0020800A00201F
:101F5000B00A0020100900200C090020BC0A002053
:101F6000B80A002004ED00E080B483B000AF054B58
:101F70001B687B607B6818460C37BD465DF8047BA8
:101F8000704700BFAC0A002080B586B000AF0023C8
:101F90007B61504B1B68002B40F08C804E4B1B68C4
:101FA00001333B614C4A3B6913603B69002B1FD1F5
:101FB0004A4B1B681B68002B09D04FF0500383F37A
:101FC0001188BFF36F8FBFF34F8F3B60FEE7434B2A
:101FD0001B68FB60424B1B68404A1360404AFB6829
:101FE0001360404B1B6801333E4A136000F0A4FAB3
:101FF0003D4B1B683A699A424DD3384B1B681B68AE
:10200000002B01D1012300E00023002B04D0364B2C
:102010004FF0FF321A603EE0304B1B68DB68DB6834
:10202000BB60BB685B687B603A697B689A4203D29D
:102030002D4A7B6813602EE0BB6804331846FEF718
:1020400065FDBB689B6A002B04D0BB68183318463B
:10205000FEF75CFDBB68DB6A01229A40234B1B68DC
:102060001343224A1360BB68DA6A13469B00134489
:102070009B001F4A1A44BB68043319461046FEF7FA
:10208000E8FCBB68DA6A1B4B1B68DB6A9A42B4D374
:1020900001237B61B1E7174B1B68DA6A14491346C9
:1020A0009B0013449B000B441B68012B07D90123A1
:1020B0007B6104E0104B1B6801330F4A13600F4B28
:1020C0001B68002B01D001237B617B691846183700
:1020D000BD4680BDD00A0020AC0A0020780A00204E
:1020E0007C0A0020C00A0020C80A0020B00A002094
:1020F000100900200C090020B80A0020BC0A0020AA
:1021000080B588B000AF394B1B68002B03D0384B2B
:1021100001221A6065E0364B00221A60354B1B68BD
:102120001B6BFB614FF0A533BB61FB691B68BA6990
:102130009A4211D1FB6904331B68BA699A420BD1E8
:10214000FB6908331B68BA699A4205D1FB690C33F5
:102150001B68BA699A4208D0264B1A68254B1B683F
:10216000343319461046FEF763F9234B1B68FB60B6
:10217000FB68B3FA83F3FB72FB7AC3F11F037B6145
:102180001E497A6913469B0013449B000B441B684D
:10219000002B09D14FF0500383F31188BFF36F8FE9
:1021A000BFF34F8F7B60FEE77A6913469B001344B1
:1021B0009B00124A13443B613B695B685A683B6968
:1021C0005A603B695A683B6908339A4204D13B69BB
:1021D0005B685A683B695A603B695B68DB68054A23
:1021E000136000BF2037BD4680BD00BFD00A00206D
:1021F000BC0A00200C090020B00A002010090020B1
:1022000080B584B000AF786039607B68002B09D15D
:102210004FF0500383F31188BFF36F8FBFF34F8FDD
:10222000FB60FEE7074B1B68183319467868FEF71A
:1022300034FC0121386800F047FA00BF1037BD4672
:1022400080BD00BF0C09002080B586B000AFF860EB
:10225000B9607A60FB68002B09D14FF0500383F31B
:102260001188BFF36F8FBFF34F8F7B61FEE70A4B7F
:102270001B6818331946F868FEF7EBFB7B68002BE8
:1022800002D04FF0FF33BB607968B86800F01CFAE9
:1022900000BF1837BD4680BD0C09002080B586B050
:1022A00000AF78607B68DB68DB683B613B69002BD3
:1022B00009D14FF0500383F31188BFF36F8FBFF341
:1022C0004F8FFB60FEE73B6918331846FEF71EFC94
:1022D0001D4B1B68002B1CD13B6904331846FEF7CD
:1022E00015FC3B69DB6A01229A40184B1B681343BB
:1022F000164A13603B69DA6A13469B0013449B003D
:10230000134A1A443B69043319461046FEF7A1FBF1
:1023100005E03B69183319460E48FEF79AFB3B6906
:10232000DA6A0D4B1B68DB6A9A4205D901237B618F
:102330000A4B01221A6001E000237B617B69184689
:102340001837BD4680BD00BFD00A0020B00A00206B
:1023500010090020800A00200C090020BC0A00207F
:1023600080B483B000AF7860064B1A687B681A604F
:10237000054B1A687B685A6000BF0C37BD465DF894
:10238000047B7047C00A0020AC0A002080B588B0EA
:1023900000AF786039607B68002B09D14FF05003A3
:1023A00083F31188BFF36F8FBFF34F8F3B61FEE75D
:1023B0003B68002B09D14FF0500383F31188BFF322
:1023C0006F8FBFF34F8FFB60FEE7FEF7FFFC244BE0
:1023D0001B68BB617B685B68BA69D31A7B61214B60
:1023E0001B6893F85130002B07D01E4B1B6800224E
:1023F00083F851200123FB612BE03B681B68B3F19C
:10240000FF3F02D10023FB6123E07B681A68164B73
:102410001B689A4207D07B685B68BA699A4202D30C
:102420000123FB6115E03B681B687A699A420BD275
:102430003B681A687B69D21A3B681A607868FFF7B4
:102440008FFF0023FB6104E03B6800221A60012338
:10245000FB61FEF7E9FCFB6918462037BD4680BDED
:10246000AC0A00200C090020C00A002080B400AF94
:10247000034B01221A6000BFBD465DF8047B704724
:10248000BC0A002080B582B000AF786000F04CF844
:10249000064B1B68012BF9D9054B4FF080521A608F
:1024A000BFF34F8FBFF36F8FF0E700BF100900201D
:1024B00004ED00E080B582B000AF00237B600CE04B
:1024C0007A6813469B0013449B00104A1344184635
:1024D000FEF792FA7B6801337B607B680F2BEFD9A4
:1024E0000B48FEF789FA0B48FEF786FA0A48FEF712
:1024F00083FA0A48FEF780FA094B054A1A60094B2D
:10250000044A1A6000BF0837BD4680BD100900208C
:10251000500A0020640A0020800A0020940A00204B
:10252000780A00207C0A002080B400AF00BFBD46BE
:102530005DF8047B7047000080B483B000AF0F4BA0
:102540001B681B68002B01D1012300E00023002B36
:1025500004D00B4B4FF0FF321A6008E0074B1B68AA
:10256000DB68DB687B607B685B68054A136000BFE3
:102570000C37BD465DF8047B704700BF780A002029
:10258000C80A002080B483B000AF0B4B1B68002B3F
:1025900002D101237B6008E0084B1B68002B02D1AD
:1025A00002237B6001E000237B607B6818460C37C8
:1025B000BD465DF8047B7047B40A0020D00A0020B5
:1025C00080B586B000AF78607B683B6100237B619B
:1025D0007B68002B6CD0394B1B683A699A4209D052
:1025E0004FF0500383F31188BFF36F8FBFF34F8F0A
:1025F000FB60FEE73B699B6C002B09D14FF0500359
:1026000083F31188BFF36F8FBFF34F8FBB60FEE77B
:102610003B699B6C5A1E3B699A643B69DA6A3B6969
:102620005B6C9A4244D03B699B6C002B40D13B6968
:1026300004331846FEF76AFA0346002B15D13B69AE
:10264000DA6A1F4913469B0013449B000B441B6826
:10265000002B0AD13B69DB6A012202FA03F3DA4359
:10266000184B1B681340174A13603B695A6C3B694F
:10267000DA623B69DB6AC3F110023B699A613B692C
:10268000DB6A01229A400F4B1B6813430D4A13600B
:102690003B69DA6A13469B0013449B00084A1A44BC
:1026A0003B69043319461046FEF7D3F901237B61D9
:1026B0007B6918461837BD4680BD00BF0C09002055
:1026C00010090020B00A002080B584B000AF786007
:1026D00039602B4B1B68FB602A4B1B68002283F878
:1026E0005120284B1B6804331846FEF70FFA0346A7
:1026F000002B0BD1234B1B68DB6A012202FA03F388
:10270000DA43214B1B6813401F4A13607B68B3F107
:10271000FF3F0AD13B68002B07D01A4B1B680433DC
:1027200019461A48FEF795F926E0FA687B681344C3
:10273000BB60144B1B68BA685A60BA68FB689A425F
:1027400009D2134B1A680F4B1B6804331946104605
:10275000FEF7A3F910E00F4B1A680A4B1B6804330D
:1027600019461046FEF799F90B4B1B68BA689A4256
:1027700002D2094ABB68136000BF1037BD4680BD56
:10278000AC0A00200C090020B00A0020940A0020A6
:102790007C0A0020780A0020C80A002080B58AB090
:1027A00004AF00237B6100F0B9FA1C4B1B68002BBF
:1027B00021D00023FB600023BB603A1D07F1080114
:1027C00007F10C031846FDF719FE7968BB68FA6833
:1027D000029201930523009300230A4610491148F1
:1027E000FFF768F90246104B1A600F4B1B68002B6D
:1027F00001D001237B617B69002B09D14FF050038D
:1028000083F31188BFF36F8FBFF34F8F3B61FEE7F8
:102810007B6918461837BD4680BD00BF040B0020F9
:10282000AC32000845290008080B002080B58AB0AA
:1028300000AFF860B9607A603B6000237B62FB68A0
:10284000002B09D14FF0500383F31188BFF36F8F32
:10285000BFF34F8F3B62FEE7194B1B68002B2AD05A
:10286000BB683B617B687B61FB68BB61BB68052B18
:1028700018DCFFF787FE0346022B09D1104B1868BE
:1028800007F1100100233A6BFEF7B2FC786212E008
:102890000B4B186807F1100100230022FEF7A8FC7B
:1028A000786208E0064B186807F1100100233A68C7
:1028B000FEF7ACFD78627B6A18462837BD4680BDBE
:1028C000040B002080B588B002AF786039601C4BE3
:1028D0001B68DB68DB687B617B6904331846FEF7A5
:1028E00015F97B69DB69012B21D17B699A697B68CA
:1028F000D1187B683A68786900F0C8F80346002B65
:1029000015D00023009300237A6800217869FFF72F
:102910008DFF38613B69002B09D14FF0500383F3E1
:102920001188BFF36F8FBFF34F8FFB60FEE77B69AA
:102930005B6A7869984700BF1837BD4680BD00BF05
:10294000FC0A002080B584B000AF786007F108036E
:10295000184600F057F8F860BB681946F86800F0B0
:1029600003F800F0D5F8F1E780B584B000AF7860E7
:102970003960FFF74FFA07F10803184600F066F8D0
:10298000F860BB68002B30D13B68002B0AD17A6815
:10299000FB689A4206D8FFF74BFAF9687868FFF7A8
:1029A00091FF24E03B68002B08D0134B1B681B6889
:1029B000002B0CBF01230023DBB23B600F4B1868D8
:1029C0007A68FB68D31A3A681946FEF7E7FFFFF703
:1029D0002FFA0346002B0AD1094B4FF080521A60A0
:1029E000BFF34F8FBFF36F8F01E0FFF721FA00BFF6
:1029F0001037BD4680BD00BF000B0020040B002037
:102A000004ED00E080B485B000AF78600E4B1B6829
:102A10001B68002B0CBF01230023DBB21A467B6826
:102A20001A607B681B68002B05D1074B1B68DB68AD
:102A30001B68FB6001E00023FB60FB68184614374D
:102A4000BD465DF8047B7047FC0A002080B584B069
:102A500000AF7860FFF788FAF8600B4B1B68FA68E4
:102A60009A4205D200F0FAF87B6801221A6002E06F
:102A70007B6800221A60044AFB681360FB681846F2
:102A80001037BD4680BD00BF0C0B002080B586B05E
:102A900000AFF860B9607A603B6000237B61FB683F
:102AA000BA685A60FB68FA681A61BA687B689A4229
:102AB00012D87A683B68D21AFB689B699A4202D3A3
:102AC00001237B611BE0104B1A68FB680433194635
:102AD0001046FDF7E2FF12E07A683B689A4206D2A0
:102AE000BA683B689A4202D301237B6107E0074B37
:102AF0001A68FB68043319461046FDF7CEFF7B6960
:102B000018461837BD4680BD000B0020FC0A002087
:102B100080B58EB002AF90E07B68002B17DA3B1DCA
:102B20000433FB62FB6A002B09D14FF0500383F39F
:102B30001188BFF36F8FBFF34F8FFB61FEE7FB6A16
:102B40001B68FA6A5068FA6A9268114698477B686F
:102B5000002B71DBFB68BB62BB6A5B69002B04D096
:102B6000BB6A04331846FDF7D1FF3B461846FFF712
:102B70006DFF78627B68092B5FD801A252F823F0C1
:102B8000A92B0008A92B0008A92B00083B2C000842
:102B9000032C00083B2C0008A92B0008A92B0008D7
:102BA0003B2C0008032C0008BA68BB6A9B69D1184B
:102BB000BB687A6AB86AFFF769FF0346002B3CD00E
:102BC000BB6A5B6AB86A9847BB6ADB69012B34D180
:102BD000BA68BB6A9B691A44002300930023002152
:102BE000B86AFFF723FE38623B6A002B25D14FF00D
:102BF000500383F31188BFF36F8FBFF34F8FBB6117
:102C0000FEE7BA68BB6A9A61BB6A9B69002B09D16F
:102C10004FF0500383F31188BFF36F8FBFF34F8FD3
:102C20007B61FEE7BB6A9A697B6AD1187B6A7A6A24
:102C3000B86AFFF72BFF00E000BF074B1B68391D88
:102C400000221846FEF788FC0346002B7FF464AF91
:102C500000BF3037BD4680BD040B002080B588B072
:102C600002AF44E02B4B1B68DB681B683B61294BC0
:102C70001B68DB68DB68FB60FB6804331846FDF704
:102C800045FFFB685B6AF8689847FB68DB69012BC6
:102C90002DD1FB689B693A691344BB60BA683B69F4
:102CA0009A420ED9FB68BA685A60FB68FA681A61E2
:102CB000184B1A68FB68043319461046FDF7EDFE01
:102CC00015E00023009300233A690021F868FFF71C
:102CD000ADFD78607B68002B09D14FF0500383F382
:102CE0001188BFF36F8FBFF34F8F3B60FEE7094B37
:102CF0001B681B68002BB5D1064B1B687B61064B1C
:102D00001B68044A1360044A7B69136000BF1837CC
:102D1000BD4680BDFC0A0020000B002080B582B0BB
:102D200002AFFEF753F8154B1B68002B20D1144857
:102D3000FDF762FE1348FDF75FFE134B104A1A6061
:102D4000124B104A1A6000230093114B114A1021B4
:102D50000820FEF7BDF90246084B1A60074B1B68B6
:102D6000002B05D0054B1B680B491846FEF7EEFDFE
:102D7000FEF75AF800BFBD4680BD00BF040B00201F
:102D8000D40A0020E80A0020FC0A0020000B0020E2
:102D9000900B0020100B0020B4320008844641EA5A
:102DA000000313F003036DD1403A41D351F8043BC3
:102DB00040F8043B51F8043B40F8043B51F8043B15
:102DC00040F8043B51F8043B40F8043B51F8043B05
:102DD00040F8043B51F8043B40F8043B51F8043BF5
:102DE00040F8043B51F8043B40F8043B51F8043BE5
:102DF00040F8043B51F8043B40F8043B51F8043BD5
:102E000040F8043B51F8043B40F8043B51F8043BC4
:102E100040F8043B51F8043B40F8043B51F8043BB4
:102E200040F8043B51F8043B40F8043B403ABDD223
:102E3000303211D351F8043B40F8043B51F8043BC5
:102E400040F8043B51F8043B40F8043B51F8043B84
:102E500040F8043B103AEDD20C3205D351F8043B54
:102E600040F8043B043AF9D2043208D0D2071CBF20
:102E700011F8013B00F8013B01D30B880380604649
:102E8000704700BF082A13D38B078DD010F00303BF
:102E90008AD0C3F10403D21ADB071CBF11F8013B2F
:102EA00000F8013B80D331F8023B20F8023B7BE77E
:102EB000043AD9D3013A11F8013B00F8013BF9D2A9
:102EC0000B7803704B7843708B7883706046704743
:102ED000F0B4860743D0541E002A3ED0CAB203463F
:102EE00002E014F1FF3438D303F8012B9D07F8D129
:102EF000032C2BD9CDB245EA05250F2C45EA054513
:102F000016D9A4F110073F0903F1200606EB0716B6
:102F100003F1100242E9045542E902551032B2426F
:102F2000F8D104F00F040137032C03EB07130DD97C
:102F30001E462246043A032A46F8045BFAD8221FAA
:102F400022F003020432134404F003042CB1C9B28A
:102F50001C4403F8011B9C42FBD1F0BC7047144693
:102F60000346C5E7024B13B1024800F005B87047AD
:102F700000000000852F0008002301461A4618466D
:102F800000F01EB838B50A4C0A4D641BA4100AD0D4
:102F900004F18043013B05EB8305013C55F80439FE
:102FA0009847002CF9D1BDE8384000F06FB800BF59
:102FB000400400203C040020704700BF704700BF61
:102FC0002DE9F8432B4D0646286898460F46914652
:102FD000FFF7F2FF284B1C68D4F84831002B3DD096
:102FE0005A681F2A0DDC02F1010C16BB0232C3F82D
:102FF00004C0286843F82270FFF7E0FF0020BDE816
:10300000F8831E4B7BB34FF4C870AFF300800346C8
:1030100048B3D4F848210021C0E900214FF0010C49
:10302000C4F848010A46C0F88811C0F88C11002E77
:10303000DCD003EB82010124C1F88890D3F8880129
:1030400094402043022EC3F88801C1F80881CDD1F5
:10305000D3F88C110C43C3F88C41C7E704F5A67371
:10306000C4F84831BCE72868FFF7A8FF4FF0FF30ED
:10307000C5E700BF30040020BC320008000000009B
:10308000F8B500BFF8BC08BC9E467047F8B500BF55
:10309000F8BC08BC9E4670470000211042206330F7
:1030A0008440A550C660E770088129914AA16BB1A0
:1030B0008CC1ADD1CEE1EFF1311210027332522248
:1030C000B5529442F772D662399318837BB35AA3F0
:1030D000BDD39CC3FFF3DEE3622443342004011418
:1030E000E664C774A44485546AA54BB52885099540
:1030F000EEE5CFF5ACC58DD55336722611163006E8
:10310000D776F6669556B4465BB77AA7199738878F
:10311000DFF7FEE79DD7BCC7C448E5588668A778A7
:103120004008611802282338CCC9EDD98EE9AFF9DF
:10313000488969990AA92BB9F55AD44AB77A966A87
:10314000711A500A333A122AFDDBDCCBBFFB9EEB2F
:10315000799B588B3BBB1AABA66C877CE44CC55C57
:10316000222C033C600C411CAEED8FFDECCDCDDD7F
:103170002AAD0BBD688D499D977EB66ED55EF44E27
:10318000133E322E511E700E9FFFBEEFDDDFFCCFCF
:103190001BBF3AAF599F788F8891A981CAB1EBA123
:1031A0000CD12DC14EF16FE18010A100C230E3209F
:1031B0000450254046706760B9839893FBA3DAB347
:1031C0003DC31CD37FE35EF3B1029012F322D232EF
:1031D0003542145277625672EAB5CBA5A895898517
:1031E0006EF54FE52CD50DC5E234C324A01481043F
:1031F0006674476424540544DBA7FAB79987B897E7
:103200005FE77EF71DC73CD7D326F2369106B0168E
:1032100057667676154634564CD96DC90EF92FE9A6
:10322000C899E9898AB9ABA94458654806782768DE
:10323000C018E1088238A3287DCB5CDB3FEB1EFB86
:10324000F98BD89BBBAB9ABB754A545A376A167A2E
:10325000F10AD01AB32A923A2EFD0FED6CDD4DCD56
:10326000AABD8BADE89DC98D267C076C645C454C7E
:10327000A23C832CE01CC10C1FEF3EFF5DCF7CDF26
:103280009BAFBABFD98FF89F176E367E554E745ECE
:10329000932EB23ED10EF01E764C65645461736B72
:1032A0000000000049444C4500000000546D7220AD
:1032B00053766300546D7251000000000800002036
:0432C000000000000A
:1032C400007A030AAAAAAAAA00000000F4020020B5
:1032D4005C030020C4030020000000000000000084
:1032E40000000000000000000000000000000000DA
:1032F40000000000000000000000000000000000CA
:1033040000000000000000000000000000000000B9
:1033140000000000000000000000000000000000A9
:103324000000000000000000000000000000000099
:103334000000000000000000000000000000000089
:103344000000000000000000000000000000000079
:103354000000000000000000000000000000000069
:103364000000000000000000000000000000000059
:1033740001000000000000000E33CDAB34126DE6F6
:10338400ECDE05000B00000000000000000000005F
:103394000000000000000000000000000000000029
:1033A4000000000000000000000000000000000019
:1033B4000000000000000000000000000000000009
:1033C40000000000000000000000000000000000F9
:1036F40080110020652F0008AD0100088901000831
:04000005080006FDEC
:00000001FF
